{
  "contractName": "DappToken",
  "abi": [
    {
      "constant": true,
      "inputs": [],
      "name": "totalSupply",
      "outputs": [
        {
          "name": "",
          "type": "uint256"
        }
      ],
      "payable": false,
      "stateMutability": "view",
      "type": "function"
    },
    {
      "inputs": [],
      "payable": false,
      "stateMutability": "nonpayable",
      "type": "constructor"
    }
  ],
  "bytecode": "0x608060405234801561001057600080fd5b50620f4240600081905550609e806100296000396000f300608060405260043610603f576000357c0100000000000000000000000000000000000000000000000000000000900463ffffffff16806318160ddd146044575b600080fd5b348015604f57600080fd5b506056606c565b6040518082815260200191505060405180910390f35b600054815600a165627a7a723058205c9c7abc8d5f8eaff418b18f78e2f00b356e854da1c45a17f3e7e71275b71c730029",
  "source": "pragma solidity ^0.4.23;\r\n\r\n/*contract DappToken {\r\n  address public owner;\r\n  uint public last_completed_migration;\r\n\r\n  constructor() public {\r\n    owner = msg.sender;\r\n  }\r\n\r\n  modifier restricted() {\r\n    if (msg.sender == owner) _;\r\n  }\r\n\r\n  function setCompleted(uint completed) public restricted {\r\n    last_completed_migration = completed;\r\n  }\r\n\r\n  function upgrade(address new_address) public restricted {\r\n    Migrations upgraded = Migrations(new_address);\r\n    upgraded.setCompleted(last_completed_migration);\r\n  }\r\n}*/\r\n\r\ncontract DappToken {\r\n\r\n\t/**\r\n\t * #1 Constructor : In solidity function with same name as contract is called Constructor and we declare this function as public\r\n\t ** for visibility , because we want this function to run when ever the contract is deployed on ethereum or any other blockchain\r\n\t ** platform.\r\n\t *\r\n\t * #2 Set the  total number of DappToken\r\n\t *\r\n\t * #3 Read the total number of token.\r\n\t *\r\n\t * Declare a variable in solidity we first declare its data type. before using a variable in a function like totalSupply\r\n\t ** we need to declare it first at top.\r\n\t */\r\n\r\n\tuint256  public totalSupply;\r\n\r\n\tfunction DappToken() public {\r\n\t\t// This is a state or class variable that can we accessible in contract in any function.\r\n\t\ttotalSupply = 1000000;\r\n\t}\r\n}",
  "sourcePath": "E:\\token_sale\\contracts\\DappToken.sol",
  "compiler": {
    "name": "solc",
    "version": "0.4.24+commit.e67f0147.Emscripten.clang"
  },
  "schemaVersion": "2.0.1",
  "updatedAt": "2018-07-06T11:09:34.847Z"
}